:020000040800F2
:100000000050002071DB00080DDC00080DDC00084A
:100010000DDC00080DDC00080DDC0008000000000D
:100020000000000000000000000000000DDC0008DF
:100030000DDC0008000000000DDC0008E1C4000831
:100040000DDC00080DDC00080DDC00080DDC0008EC
:100050000DDC00080DDC00080DDC00080DDC0008DC
:100060000DDC00080DDC00080DDC00080DDC0008CC
:100070000DDC00080DDC000831CA00080DDC0008AA
:100080000DDC00080DDC00080DDC00080DDC0008AC
:100090000DDC00080DDC00080DDC00080DDC00089C
:1000A0000DDC00080DDC00080DDC00085DCC00084C
:1000B0006DCC00087DCC00088DCC00082DBD00085B
:1000C00035BE000835BD00083DBE00080DDC000847
:1000D0000DDC000865CA00080DDC00080DDC000816
:1000E000E1CE00080DDC00080DDC00080000000077
:1000F0000000000000000000000000000000000000
:0C01000000000000000000005FF808F1A3
:1001100010B5054C237833B9044B13B10448AFF341
:1001200000800123237010BDA80000200000000003
:1001300010310108084B10B51BB108490848AFF34E
:1001400000800848036803B910BD074B002BFBD0A3
:10015000BDE81040184700BF00000000AC000020C0
:1001600010310108A400002000000000F0B50124B7
:10017000B0FBF4F58D4202D301FB04F4F8E700264E
:10018000DCB1B0FBF4F504FB1500B4FBF1F41EB9CF
:10019000002D01DC002CF3D15F1C092D03DD2AB1F9
:1001A0004FF0370E04E04FF0300E01E04FF0570EE5
:1001B00075441D7001363B46E2E700221A70F0BD1F
:1001C00008B50B46002803DA40422D220A7001339D
:1001D00000220A21FFF7CAFF08BD00BFA0F13003CB
:1001E000DBB2092B01D830387047A0F16103DBB2D4
:1001F000052B01D857387047A0F14103DBB2052B1E
:1002000001D8373870474FF0FF3070472DE9F84379
:1002100005468846174699460C6800262846FFF78B
:10022000DDFF002806DBB84204DC07FB0606257864
:100230000134F3E7C8F80040C9F800602846BDE87B
:10024000F88300BF2DE9F04105460E46069C0BB130
:10025000302700E020272346591C1B7813B11AB918
:10026000002302E0002300E0012313B1013A0B4612
:10027000F2E702F1FF3822B139462846B04742463C
:10028000F7E7671C217819B12846B0473C46F8E7E4
:10029000BDE8F08103685A1C02601970704700BF06
:1002A0002DE9F04188B006460D4603921C46039B9B
:1002B0005A1C0392197800297AD0252902D0304699
:1002C000A847F4E700210491511C03915878302885
:1002D00004D1911C03915078012700E00027A0F180
:1002E0003003DBB2092B04D804AB0A2203A9FFF7C1
:1002F0008DFF632849D006D8252855D058282FD0FF
:10030000002855D0D3E7732844D002D8642817D0EA
:10031000CDE7752802D0782822D0C8E70DF114085F
:10032000434600220A2120680434FFF71FFFCDF85E
:1003300000803B46049A29463046FFF783FFB6E724
:100340000DF11408414620680434FFF739FFCDF859
:1003500000803B46049A29463046FFF773FFA6E724
:100360000DF114084346582814BF00220122102121
:1003700020680434FFF7FAFECDF800803B46049A6B
:1003800029463046FFF75EFF91E721780434304676
:10039000A8478CE72368043400930023049A294675
:1003A0003046FFF74FFF82E701463046A8477EE719
:1003B00008B0BDE8F08100BF014B1960586070477C
:1003C000C40000200FB400B583B004AB53F8042B75
:1003D0000193054801684068FFF762FF03B05DF8CC
:1003E00004EB04B0704700BFC400002010B582B019
:1003F00002AC44F8040D13460A4605492046FFF7AF
:100400004FFF00212046FFF745FF02B010BD00BF9F
:100410009502000838B5044640F8081B214602F052
:10042000D3F9214604F5127000F0B0F8214604F526
:1004300086500C3005F006F8214604F58E50183031
:1004400004F02EFC214604F59550083001F0B8FD6B
:10045000214604F59A5005F0C5FF214604F5CC501D
:100460000C3005F0D7FA214604F5CE50103000F0DC
:100470005FFD214604F5D850103001F055FC11E025
:1004800014F512750CD004F68804A54208D0103C6F
:10049000A368002BF9D00322214620469847F4E7B1
:1004A0000EF0CDF8204638BD10B50446006803684C
:1004B0001B68984704F5D850103001F025FD04F56D
:1004C000127000F07BFC04F59A5006F095F904F5E3
:1004D000CC500C3005F004FD04F1080003F040FF9F
:1004E00004F5CE50103001F0A3FA04F59550083011
:1004F00001F0CEFD04F58E50183004F095F904F5A6
:1005000086500C3005F012FA10BD00BF38B5044615
:1005100000680368DB689847054604F5CE50103044
:1005200001F0EEFBA8B104F59550083001F034FE5F
:1005300004F58E50183004F0F1FA04F59A5006F0E4
:10054000A7F820680368DB689847401B41F624330E
:10055000E05004F10805284603F08EFD284603F01C
:1005600035FC04F5D850103001F022FD04F5CC50D4
:100570000C3005F029FC04F586500C3005F068F9C4
:1005800038BD00BF41F62433C058704770B50646E9
:1005900002466323B3F1FF3F04D000209060103285
:1005A000013BF7E7C6F8801E0024632C0FD806EB4A
:1005B00004139B6843B106EB041503222946284621
:1005C00098470023AB60EB600134A4B2EDE73046FE
:1005D00070BD00BFF0B50C0104F5FB640519D2F83D
:1005E00000E057689668D26840F804E06F60AE603B
:1005F000EA6001F5C97240F822300144002381F815
:10060000183EF0BDF0B50C0104F5FB640519D2F8F5
:1006100000E057689668D26840F804E06F60AE600A
:10062000EA6001F5C97240F822300144012381F8E3
:10063000183EF0BD00F5C962002300F5FB618A4257
:1006400003D212F8011B4B40F7E700F61862914203
:1006500003D211F8012B5340F7E700F67C618A4280
:1006600003D212F8011B4B40F7E71846704700BF52
:100670002DE9F84F04464FF46123C84A0021FFF7E3
:10068000A9FF0123C64A19462046FFF7A3FF01230D
:10069000C44A02212046FFF79DFF0A23C24A0321D4
:1006A0002046FFF797FFC823C04A04212046FFF7E2
:1006B00091FF4FF4FA73BE4A05212046FFF78AFFE7
:1006C0003223BC4A06212046FFF784FF3223BA4A70
:1006D00007212046FFF77EFF1423B84A0821204651
:1006E000FFF778FF2823B64A09212046FFF772FF5B
:1006F0003223B44A0A212046FFF76CFF3223B24A64
:100700000B212046FFF766FF4FF07E563346AF4A77
:100710000C212046FFF776FFAD4F3B46AD4A0D2139
:100720002046FFF76FFF00252B46AB4A0E212046DF
:10073000FFF768FF2B46A94A0F212046FFF762FF0B
:100740003B46A74A10212046FFF75CFF2B46A54AEF
:1007500011212046FFF756FF2B46A34A12212046BF
:10076000FFF750FF4FF07A53A04A13212046FFF7BE
:1007700049FF2B469E4A14212046FFF743FF2B4694
:100780009C4A15212046FFF73DFFDFF818834346BA
:10079000994A16212046FFF735FF2B46974A172125
:1007A0002046FFF72FFF964F3B46964A18212046DA
:1007B000FFF728FF4346944A19212046FFF722FFFE
:1007C0002B46924A1A212046FFF71CFF3B46904ACF
:1007D0001B212046FFF716FF2B468E4A1C21204680
:1007E000FFF710FF2B468C4A1D212046FFF70AFF1A
:1007F0002B468A4A1E212046FFF704FF3B46884AC3
:100800001F212046FFF7FEFE4FF4F573854A202195
:100810002046FFF7DFFEDFF890924B46824A212107
:100820002046FFF7EFFEDFF884B25B467F4A2221C5
:100830002046FFF7E7FE4FF47A737D4A24212046D5
:10084000FFF7C8FE4FF4FA637A4A23212046FFF7E8
:10085000C1FE0123784A25212046FFF7BBFE40F662
:10086000B833764A26212046FFF7B4FE4FF07C5A73
:100870005346734A27212046FFF7C4FE3B46714A80
:1008800028212046FFF7BEFE01236F4A292120467A
:10089000FFF7A0FE01236D4A2A212046FFF79AFEAA
:1008A00001236B4A2B212046FFF794FE0023694A5F
:1008B0002C212046FFF78EFE5B46674A2D212046FD
:1008C000FFF7A0FE5346654A2E212046FFF79AFE09
:1008D0002B46634A2F212046FFF794FE2B46614AA0
:1008E00030212046FFF78EFE2B465F4A31212046FD
:1008F000FFF788FE2B465D4A32212046FFF782FE35
:100900002B465B4A33212046FFF77CFE2B46594A93
:1009100034212046FFF776FE2B46574A35212046E4
:10092000FFF770FE2B46554A36212046FFF76AFE38
:100930002B46534A37212046FFF764FE3346514A7F
:1009400038212046FFF75EFE2B464F4A39212046CC
:10095000FFF758FE2B464D4A3A212046FFF752FE3C
:100960002B464B4A3B212046FFF74CFE3346494A73
:100970003C212046FFF746FE2B46474A3D212046B4
:10098000FFF740FE2B46454A3E212046FFF73AFE40
:100990002B46434A3F2120468AE000BF002501083C
:1009A0000C25010814250108202501082C25010823
:1009B0003C25010848250108542501086025010847
:1009C000702501087C25010888250108902501086B
:1009D000295C8F3DA0250108B0250108C02501082C
:1009E000D0250108E4250108F82501080C26010896
:1009F0001C2601082C2601083C2601084C2601086B
:100A0000CDCC4C3D5C2601086C2601087C260108F3
:100A10008C2601089C260108A8260108B426010896
:100A2000C0260108C8260108DC260108EC260108BA
:100A3000FC2601080C2701081C2701082C270108A7
:100A40003C270108482701085427010864270108AA
:100A5000742701088427010894270108A4270108A6
:100A6000B4270108C0270108CC270108D8270108AE
:100A7000E4270108F0270108FC2701080C280108D9
:100A80001C2801082C2801083C2801084C280108D2
:100A90005C2801086C2801087C2801088C280108C2
:100AA0009C2801089A99193ECDCCCC3D9A99993E43
:100AB000FFF7A8FD33466F4A40212046FFF7A2FD0D
:100AC0002B466D4A41212046FFF79CFD2B466B4A81
:100AD00042212046FFF796FD2B46694A43212046D6
:100AE000FFF790FD2B46674A44212046FFF78AFD19
:100AF000654B664A45212046FFF784FD2B46644A34
:100B000046212046FFF77EFD0123624A4721204609
:100B1000FFF760FD0023604A48212046FFF75AFD99
:100B200001235E4A49212046FFF754FD03235C4A16
:100B30004A212046FFF74EFD02235A4A4B21204608
:100B4000FFF748FD0423584A4C212046FFF742FD99
:100B50000423564A4D212046FFF73CFD4FF0FF335A
:100B6000534A4E212046FFF735FD4FF0FF33514ADF
:100B70004F212046FFF72EFD06234F4A50212046E5
:100B8000FFF728FD01234D4A51212046FFF722FDA2
:100B900001234B4A52212046FFF71CFD0123494AFD
:100BA00053212046FFF716FD0123474A54212046D2
:100BB000FFF710FD4B46454A55212046FFF722FD21
:100BC0004FF47A73424A56212046FFF703FD012372
:100BD000404A57212046FFF7FDFC01233E4A582199
:100BE0002046FFF7F7FC3D4D2B463D4A5921204654
:100BF000FFF708FD2B463B4A5A212046FFF702FD2E
:100C0000394D2B46394A5B212046FFF7FBFC2B462A
:100C1000374A5C212046FFF7F5FC364B364A5D210A
:100C20002046FFF7EFFCFF23344A5E212046FFF702
:100C3000D1FC0023324A5F212046FFF7CBFC002382
:100C4000304A60212046FFF7C5FC00232E4A61216F
:100C50002046FFF7BFFC00232C4A62212046FFF705
:100C6000B9FC43462A4A63212046FFF7CBFCBDE886
:100C7000F88F00BFAC280108BC280108C82801086B
:100C8000D4280108E02801080060AD44EC280108E0
:100C9000FC2801080C290108142901082029010851
:100CA0002C29010838290108442901085429010880
:100CB0006429010874290108802901088C29010888
:100CC0009C290108AC290108BC290108CC2901088C
:100CD000D8290108E8290108F82901084C37493FBB
:100CE000042A0108102A0108D00F4940202A0108CF
:100CF000302A010860E5C03F442A0108542A01084F
:100D00005C2A0108682A0108782A0108802A01085B
:100D10008C2A010838B50446D0F8803E186803686C
:100D2000DB6E4FF4046204F5C8619847054608B3CA
:100D3000D4F84026104B9A4215D1B4F84436B3F596
:100D4000046F12D194F84636BE2B10D194F87C3E35
:100D5000EF2B0ED12046FFF76DFC94F87D3E9842B4
:100D600008D0002506E0002504E0002502E000256B
:100D700000E00025284638BDA2F71C5B38B50446C4
:100D80000D4BC0F840364FF40465A0F84456BE231E
:100D900080F84636EF2380F87C3EFFF74BFC84F862
:100DA0007D0ED4F8803E186803681B6F2A4604F550
:100DB000C861984738BD00BFA2F71C5B10B5044658
:100DC000D0F8803E186803689B6E98472046FFF76E
:100DD000A1FF28B92046FFF74BFC2046FFF7CEFFC6
:100DE00010BD00BF30B40025632D17D800230F2B92
:100DF0000BD8CC5C00EB05121A4492F8D827944229
:100E000005D132B10133DBB2F1E7012302E0002367
:100E100000E0012323B90135ADB2E5E7642000E02D
:100E2000284630BC704700BF08B500EB011083684E
:100E30000BB10CF051FF08BD632916D838B501F588
:100E4000C97350F82330934211D00C46054601F582
:100E5000C97340F82320FFF7E7FFD5F8800E21463D
:100E6000083002F019FB012038BD00207047002037
:100E700038BD00BF38B504461546FFF7B3FF2A4614
:100E800001462046FFF7D8FF38BD00BF08B5FFF781
:100E9000F1FF08BD63291BD870B516460C46054600
:100EA00001F5C973114650F8230007F0E7FF88B930
:100EB00004F5C97345F8236021462846FFF7B4FFBF
:100EC000D5F8800E2146083002F0E6FA012070BD08
:100ED00000207047002070BDF0B587B00F46164661
:100EE00000EB021402AD28460CF004FF95E8030065
:100EF0008DE8030094E8030085E803009DE8030003
:100F000084E80300049AA3680493A260059AE16848
:100F10000591E2601BB1032202A9084698473146B9
:100F200038460CF0D9FE07B0F0BD00BF000000004D
:100F3000F0B583B00546074647F8081B0024234652
:100F400022462146384605F06DFF234622462146BB
:100F500005F1140005F066FF0094234622464FF089
:100F60007E5105F1200006F0B5F8BC620022002396
:100F7000C7E90C23BC63FC633C64002687F844602B
:100F8000BC64FC643C6587F85460BC6587F85C60B1
:100F900023462246214605F1680005F043FF87F805
:100FA0006C6087F86D6087F86E6087F86F60AC677B
:100FB000EC67C5F88040C5F88440C5F88840C5F89E
:100FC0008C4085F8906085F8916085F89260C5F84E
:100FD0009460C5F89860A5F89E6023462246214695
:100FE00005F1A00005F01EFFA5F8AC6023462246DF
:100FF000214605F1B00005F015FF1B4B22462146A6
:1010000005F1BC0005F00EFFC5F8C84017490B46B6
:101010000A4605F1CC0005F005FF15490B460A46C6
:1010200005F1D80005F0FEFE85F8E460C5F8E8405B
:10103000A5F8EC60C5F8F060C5F8F440C5F8F840D4
:1010400085F8FC60A5F8FE60C5F80061C5F80441AC
:10105000C5F8084185F8186185F8286185F8386178
:10106000284603B0F0BD00BF0AE81C4100007AC466
:1010700000007A4410B504460368186803689B684A
:101080009847D4F8943003F57A73984249D9C4F854
:10109000940094F8763073B92368186803681B6D60
:1010A000984740B1012384F8763020681D4A062114
:1010B000083002F0CDFC94F8773073B923681868D3
:1010C00003689B6C984740B1012384F8773020680F
:1010D000154A0621083002F0BBFC94F8743073B94D
:1010E0002368186803681B6C984740B1012384F893
:1010F000743020680D4A0621083002F0A9FC94F8EB
:10110000753073B92368186803689B6B984740B1C2
:10111000012384F875302068054A0621083002F062
:1011200097FC10BD9C2A0108A82A0108BC2A0108C6
:10113000CC2A010870B50446012680F89160006849
:1011400000252A462F2100F51270FFF7A3FE206824
:101150002A46302100F51270FFF79CFE20682A46CF
:10116000312100F51270FFF795FE304670BD00BFCB
:1011700070B50446FFF7DEFF012684F89060206812
:1011800000252A46322100F51270FFF783FE206801
:101190002A46332100F51270FFF77CFE20682A46AC
:1011A000342100F51270FFF775FE304670BD00BFA8
:1011B00008B50022C0F8F420C0F8F8200023A0F8F9
:1011C000EC3080F8E4300068442100F51270FFF73D
:1011D00061FE012008BD00BF08B50022C0F804214F
:1011E000C0F808210023A0F8FE3080F8FC30006829
:1011F000462100F51270FFF74DFE012008BD00BF2B
:1012000090F8910080F00100704700BF30B585B0C4
:10121000044600F1A00500F11401284605F066FE21
:10122000B4F89E00013080B2A4F89E00B0F57A7F39
:101230004AD907F037FC0246294601A805F09CFE72
:1012400001A806F0EFFC4FF07E5107F021FE10B32D
:101250002068019A2F2100F51270FFF71BFE20680D
:10126000029A302100F51270FFF714FE2068039AED
:10127000312100F51270FFF70DFE206800F5955042
:10128000083000F0FFFE2068072100F5D85010302C
:1012900000F07CFD0CE02068082100F5D8501030EB
:1012A00000F074FD2068094A0321083002F0D0FBE9
:1012B000002384F89130A4F89E300023C4F8A030B5
:1012C000C4F8A430C4F8A83005B030BDE02A010845
:1012D0002DE9F04184B0074604A800E90E00019D05
:1012E0000A9C2146284607F0F1FD00B12C46029EDB
:1012F0000B9D2946304607F0E9FD00B13546DDF883
:101300000C800C9E3146404607F0E0FD00B1464699
:1013100033462A462146384605F084FD384604B057
:10132000BDE8F0812DE9F04184B0074604A800E94A
:101330000E00019D0A9C2146284607F0A9FD00B138
:101340002C46029E0B9D2946304607F0A1FD00B1B8
:101350003546DDF80C800C9E3146404607F098FD7E
:1013600000B1464633462A462146384605F05AFD26
:10137000384604B0BDE8F0812DE9F0419AB004464A
:1013800000F1B00700F10806324639460EA805F014
:1013900069FD04AD04F1BC020EA9284605F062FD0A
:1013A00095E8070087E80700216BD4F8C80007F02C
:1013B000C9FAC4F8C80096E807008DE8070004F1F0
:1013C000CC0898E80E002846FFF782FF95E8070052
:1013D00088E8070096E807008DE8070004F1D806C2
:1013E00096E80E002846FFF79DFF95E8070086E87F
:1013F0000700B4F8AC3001339BB2A4F8AC30B3F5BD
:101400007A7F40F2A1802168D1F86C39D1F868293F
:10141000D1F8641908A805F005FDD4F8C82008A97A
:1014200014A805F08BFD14AA394611A805F03CFD5F
:10143000B4F8AC0007F036FB024611A90BA805F082
:101440009BFD3246414617A805F02EFD17A806F071
:10145000E9FB4FF07E5107F039FD48B120683C4A66
:101460000321083002F0F4FA002384F8903051E0B0
:10147000206800F59550083000F0D0FD002384F876
:1014800090300BA806F0CEFB324907F001FD10B3F7
:1014900020680B9A322100F51270FFF7FBFC2068E0
:1014A0000C9A332100F51270FFF7F4FC20680D9AB6
:1014B000342100F51270FFF7EDFC2068264A062162
:1014C000083002F0C5FA2068202100F5D85010300D
:1014D00000F04CFC1EE0256808350BA806F0A2FBC6
:1014E00007F024FD06460BA806F09CFB1B4907F0FD
:1014F00031FB07F01BFD1A4BA3FB00239B094FF4A4
:101500007A7202FB130300933346164A03212846DE
:1015100002F09EFA0023A4F8AC300023C4F8B030E7
:10152000C4F8B430C4F8B830C4F8C8300E4BC4F8AE
:10153000CC30C4F8D030C4F8D430084BC4F8D8301C
:10154000C4F8DC30C4F8E0301AB0BDE8F08100BF68
:10155000002B010800004040202B010800007A44C5
:10156000D34D6210382B010800007AC42DE9F041F8
:1015700004460368186803689B689847D4F8F030FD
:101580001433984263D9B4F8EC500135ADB2A4F8E5
:10159000EC50FF2D26D92F49D4F8F80007F078FC3D
:1015A00088B12068D4F8F420442100F51270FFF7C8
:1015B00071FC012384F8E4302068274A06210830B2
:1015C00002F046FA05E02068244A0321083002F0C0
:1015D0003FFA0023C4F8F430C4F8F8300023A4F82C
:1015E000EC302DE0802D2BD9D4F8E810606D07F099
:1015F000A7F98046D4F8F470394607F0A1F90646F9
:10160000A5F1800007F052FA0146304607F056FB7C
:101610000146384607F096F90146C4F8F400404602
:1016200007F08EF90146304607F094FA0C4907F0AE
:1016300045FB0146D4F8F80007F084F9C4F8F80037
:101640002368186803689B689847C4F8F000BDE8F1
:10165000F08100BF0000C841582B0108702B010821
:101660000000FC422DE9F041044603681868036855
:101670009B689847D4F80031143398425FD9B4F886
:10168000FE500135ADB2A4F8FE50FF2D26D92D49EC
:10169000D4F8080107F0FCFB88B12068D4F80421D5
:1016A000462100F51270FFF7F5FB012384F8FC30AA
:1016B0002068254A0621083002F0CAF905E02068B2
:1016C000224A0321083002F0C3F90023C4F8043190
:1016D000C4F808310023A4F8FE3029E0802D27D972
:1016E000676CD4F804814146384607F029F906466C
:1016F000A5F1800007F0DAF90146304607F0DEFA7E
:101700000146404607F01EF90146C4F80401384678
:1017100007F016F90146304607F01CFA0C4907F0AD
:10172000CDFA0146D4F8080107F00CF9C4F8080115
:101730002368186803689B689847C4F80001BDE8EF
:10174000F08100BF0000C842942B0108B02B0108B3
:101750000000FC4270B504460568066BD5F86419B4
:10176000304607F0F7F9D5F8581907F0EBF80146BD
:10177000A06807F0E5F8A060D5F86819304607F0D2
:10178000E9F9D5F85C1907F0DDF80146E06807F0E3
:10179000D7F8E060D5F86C19304607F0DBF9014660
:1017A000D5F8600907F0CEF80146206907F0C8F8BF
:1017B0002061D5F84C19606907F0C2F86061D5F86E
:1017C0005019A06907F0BCF8A061D5F85419E06978
:1017D00007F0B6F8E06170BD30B583B00446036829
:1017E00018680368DB6A984700283ED02068022109
:1017F00000F5D850103000F0B9FA23681868036873
:101800009B689847C4F89800234653F8842B1068C7
:101810000268156B04F13802009204F1300204F101
:101820007801A8470546002842D0A36FA360E36F64
:10183000E360D4F880302361D4F884306361D4F855
:101840008830A361D4F88C30E36194F8903013B100
:101850002046FFF791FD94F8913013B12046FFF731
:10186000D5FC2046FFF776FF22E00546236818687E
:1018700003689B689847D4F8983003F57A739842C8
:1018800016D92368186803689B689847C4F89800BD
:10189000236841F614329A5C1AB9186803685B6BC6
:1018A00098472068022100F5D850103000F052FA15
:1018B000284603B030BD00BF2DE9F8430546046853
:1018C000D4F89419806E07F03BF88046D4F8981944
:1018D000E86E07F035F80746D4F89C19286F07F032
:1018E0002FF80646D4F87019404607F033F98146C0
:1018F000D4F87419384607F02DF90146484607F028
:1019000021F88146D4F87819304607F023F90146CA
:10191000484607F017F8A8664146D4F87C0907F056
:1019200019F98146D4F88019384607F013F90146B1
:10193000484607F007F88146D4F88419304607F086
:1019400009F90146484606F0FDFFE866D4F8881913
:10195000404607F0FFF88046D4F88C19384607F067
:10196000F9F80146404606F0EDFF0746D4F8901915
:10197000304607F0EFF80146384606F0E3FF2867E7
:10198000BDE8F88310B5044690F8E4300BB9FFF7D2
:10199000EDFD2368D3F8A019606D06F0D1FF6065F6
:1019A00006F076F82368D3F8A41906F0C9FF20657D
:1019B00010BD00BF70B5044690F8FC300BB9FFF7BE
:1019C00051FE2368D3F8A819606C06F0B9FF606473
:1019D00094F874300BB1666D00E00C4E05F0B0FD6C
:1019E0000B4907F0B7F80546606C06F0D1F8A16C1A
:1019F00007F0B0F8314607F061F906F0D5F8014676
:101A0000284607F05BF9206470BD00BF80E6C5473B
:101A10008D97C44138B5044608461D46114607F067
:101A20004DF920600123A3606560237338BD00BFBA
:101A300070B50446002380F89C300068022100F550
:101A4000D850103000F092F92368186803685B6A78
:101A5000984725680021D5F8580907F00FFAF8B122
:101A60000021D5F85C0907F009FAD8B10021D5F8B2
:101A7000600907F003FAB8B10021D5F84C0907F066
:101A8000FDF998B10021D5F8500907F0F7F978B1C0
:101A90000021D5F8540907F0F1F958B101230AE003
:101AA000002308E0002306E0002304E0002302E016
:101AB000002300E000232BB1202105F5D850103081
:101AC00000F048F9002384F892302368D3F8A40981
:101AD00006F0B6FB18A3D3E9002306F005FC024686
:101AE0000B460020184906F04BFA15A3D3E9002352
:101AF0000DF01CFA06F0D0FE144907F02BF803464F
:101B0000C4F8E800124D2A46124904F58670FFF722
:101B100081FF002633462A460F4904F58E70FFF7F1
:101B200079FF33462A460D4904F59670FFF772FF98
:101B300070BD00BFAFF30080C6F9B55B6DAAF73E7C
:101B4000DAACFA5C6D0515400000F03F80E6C54751
:101B50000000484200004843000061430000C842C2
:101B60002DE9F04704460F4692464168384606F094
:101B7000E7FE064620F00048A568D4F80090284605
:101B800006F094FF494606F0E5FF0146404607F09F
:101B90007FF998B3CAF80070304605F0D1FC06F022
:101BA0004FFB804689462568304605F0F1FF06F078
:101BB00047FB06460F46284606F042FB32463B46A8
:101BC0000DF026F902460B464046494606F08CFBCE
:101BD00006460F46606806F033FB02460B46304669
:101BE000394606F0CFF906F057FE6060A368012B76
:101BF00009DD013BA3600120BDE8F0870135A56048
:101C00000020BDE8F0870120BDE8F08730B585B041
:101C1000044690F89230032B61D8DFE803F0021FEE
:101C20003B4E90F87430002B59D0054655F8543B84
:101C3000186803685B6C01AA694698472A460099B0
:101C400004F58670FFF78CFF84F85C00002846D00E
:101C5000019BA3652046FFF795FE40E090F87730A2
:101C6000002B3CD0054655F8443B18680368DB6CF4
:101C700001AA694698472A46009904F58E70FFF735
:101C80006FFF84F84C0050B3019BA3642046FFF71C
:101C900091FE24E090F876300BB3054655F8603B92
:101CA000186803685B6D98472A46014604F59670EC
:101CB000FFF756FF84F8640011E090F8753073B1B7
:101CC000036818680368DB6B01A99847019BA3664A
:101CD000029BE366039B23672046FFF7EDFD94F824
:101CE00092300133054A134003D5013B63F00303EF
:101CF000013384F8923005B030BD00BF030000808E
:101D000038B50446FFF768FD054650B9226841F62C
:101D10001433D35C13B92046FFF7ACF92046FFF724
:101D200075FF284638BD00BF01600022C260027402
:101D30000271827142710281704700BF08B5038948
:101D40001BB1052100F022F808BD062100F01EF8A5
:101D500008BD00BF10B50446038919430181FFF790
:101D6000EDFF2068083001F093FB10BD03890B42A2
:101D70000BD010B5044623EA01030381FFF7DEFF11
:101D80002068083001F084FB10BD704710B5044690
:101D9000037C052B00F2B580DFE803F00309703502
:101DA0009854002940F0AD800123037410BD01391F
:101DB000042900F2A680DFE801F012A409030D0057
:101DC0000421FFF7D3FF0023637110BD0421FFF747
:101DD000C1FF10BD012383710323037410BD00688C
:101DE000D0F840393BB10523237400F5CE501030B4
:101DF000FFF7A0F910BD01232371083001F048FB63
:101E00000223237410BD013905297AD8DFE801F0D7
:101E100012790307790D0421FFF79CFF10BD0421FF
:101E2000FFF7A4FF0023637110BD0023837101231A
:101E3000037410BD00682389324A0321083001F081
:101E400007FE10BD033905295BD8DFE801F00B5A06
:101E50000F140308012303710223037410BD01232F
:101E6000037410BD0421FFF775FF10BD0323037435
:101E70000123837110BD0023837110BD0239042931
:101E80003FD8DFE801F00F033E1D2000012343711E
:101E90000068083001F0FCFA042121742046FFF7A5
:101EA00059FF10BD002303710068083001F0F0FAFB
:101EB000A37913B10323237410BD0123237410BD30
:101EC0000123837110BD0023837110BD04290CD040
:101ED000052902D0022914D102E00123837110BD2B
:101EE000002303710323037410BD0068083001F060
:101EF000CFFA002363710223237404212046FFF7E5
:101F000035FF10BDD82B010810B504460021FFF79E
:101F10003DFF2046FFF712FF236818680368D3F8D7
:101F20008430984710BD00BF38B504464379ABB143
:101F3000C5680368186803689B689847854235D26E
:101F4000236818680368D3F88830984723681868AE
:101F500003689B6898476430E06038BD8379B3B10B
:101F6000C5680368186803689B68984785421DD256
:101F7000236818680368D3F888309847236818687E
:101F800003689B68984700F5FA70E06038BD0379F4
:101F900033B9036818680368D3F88430984738BDAC
:101FA000036818680368D3F88030984738BD00BFCD
:101FB00010B50446FFF7C2FE2046FFF7B5FF10BD7F
:101FC00038B504460D460021134B0A4604F02AFF9B
:101FD000E56004F1100004F01FFF04F11C0005F09F
:101FE00071F804F1500004F017FF04F15C0004F0F4
:101FF00013FF04F1680004F00FFF04F1740004F013
:102000000BFF04F1800004F007FF04F18C0004F0E2
:1020100003FF204638BD00BF000080BF10B5044656
:102020004FF07E53C3610023036243628362036106
:1020300043618361C36203634363036543658365EF
:10204000C365036643668366C36603674367836746
:102050000B4AC267C0F88030C0F88430C0F88830BE
:10206000C36818680368DB689847C4E90E01E06834
:10207000082100F5D8501030FFF778FE10BD00BFE2
:102080000AE81CC100238366C3660367704700BF6C
:1020900038B500240025C0E91045C0E91245FFF716
:1020A000BDFF38BD2DE9F8430446C568D5F8486939
:1020B00031464FF07E5006F043FC074641F6D813F8
:1020C00005EB0308E95806F045FD81463146606F8F
:1020D00006F040FD0146484606F034FC6067D8F83B
:1020E0000410384606F036FD81463146A06F06F0F2
:1020F00031FD0146484606F025FCA067D8F80810D7
:10210000384606F027FD07463146E06F06F022FD0F
:102110000146384606F016FCE067D5F844693146BA
:102120004FF07E5006F00CFC074641F6E41305EB39
:102130000308E95806F00EFD0546D4F88010304635
:1021400006F008FD0146284606F0FCFBC4F88000B6
:10215000D8F80410384606F0FDFC0546D4F8841083
:10216000304606F0F7FC0146284606F0EBFBC4F8C3
:102170008400D8F80810384606F0ECFC0546D4F880
:102180008810304606F0E6FC0146284606F0DAFBE9
:10219000C4F88800BDE8F8832DE9F04FB5B0C568F4
:1021A00005F5CE53D3E91289D0E9102352EA030191
:1021B00004D1C0E91089C0E91289E6E204469945D4
:1021C00008BF904508D2102105F5D8500844FFF704
:1021D000C1FDC4E91089D8E2994508BF904500F0D7
:1021E000D482102105F5D8500844FFF7BFFDD4E98B
:1021F0001001B8EB000069EB010106F065FC6949CC
:1022000006F0A8FC0590C4E91089C4E90E89E568C8
:10221000D5F828391E46DF17BA00980042EA9371B4
:102220004B0143EAD0634201121A63EB0103B61873
:102230005F41FB0043EA5673F200994508BF9045A1
:102240000CD25949D5F82C0906F084FC824656492F
:10225000D5F8300906F07EFC054603E0D5F82CA938
:10226000D5F830592046FFF71DFF04F174063046BB
:1022700004F0DEFD07461FA804F0CEFDE368D3F8A6
:102280003C395BB14949384606F002FE40B1484945
:10229000384606F01BFE28B9002304E0002302E0C4
:1022A000002300E00123002B41D0C4E9128931460C
:1022B0000EA805F003FD0EAA214611A805F04CFE5C
:1022C00004F11C0211A915A804F00CFF4FF04041C5
:1022D000159806F03FFC0646169906F03BFC83462F
:1022E0001F901799304606F035FC074620900026CF
:1022F00021965946284606F02DFC0146DDF814B01B
:10230000584606F027FC0146A06E06F019FBA066B1
:102310003946284606F01EFC0146584606F01AFCCF
:102320000146E06E06F00CFBE066266703E0002342
:102330001F93209321931CA804F06EFDE368D3F84B
:102340003439002B3CD004F15C071A4A394625A8E1
:1023500004F012FE04F15005174A294628A804F09B
:10236000EDFD28AA25A922A804F07CFD04F1800631
:10237000124A31462BA804F0E1FD0DF1280B2BAADF
:1023800022A9584604F06EFD1CAB9BE8070083E8C9
:10239000070095E8070087E8070096E8070085E84A
:1023A000070013E0BD378635000020417BBBE842C3
:1023B000C8CB9B42000040C1ABAA2A3F5555D53E31
:1023C0001CAB04F1800207CA83E8070004F1680B24
:1023D0005A461CA92EA804F067FD52461FA931A831
:1023E00004F0ACFD31AA2EA919A804F03BFD19A8F0
:1023F00004F01EFD0546002106F068FD002800F0EF
:102400008581DDF864A01A9B03931B9A0492E3680C
:10241000D3F83839002B00F0D080284605F010FFA3
:102420000CF01CFF06F038FA054615A804F04AFE29
:102430002946059806F08EFB4FF07C5106F08AFB8A
:1024400005F0FEFE06460F460CF09AFC06F024FA54
:10245000059029464FF07E5006F030FC0546304688
:1024600039460CF01BFD06460F46284605F0E8FEEF
:1024700032463B4605F038FF06F00EFA0690E16959
:102480000791059806F066FB0890266A0AF100405D
:10249000314606F05FFB0746656A2946039806F059
:1024A00059FB0146384606F04BFA0990A76A3946AF
:1024B000049806F04FFB0146099806F041FA0146E0
:1024C000069806F047FB0146089806F03BFA15907F
:1024D0003146059806F03EFB08900799504606F0F5
:1024E00039FB09902946049806F034FB0146099807
:1024F00006F028FA09903946039806F02BFB0146AE
:10250000099806F01DFA0146069806F023FB0146DD
:10251000089806F017FA16902946059806F01AFB57
:1025200008900799039806F015FB09903146049826
:1025300006F010FB0146099806F002FA09903946A8
:10254000504606F007FB0146099806F0FBF90146E4
:10255000069806F0FFFA0146089806F0F3F917907E
:102560003946059806F0F6FA07460799049806F0EA
:10257000F1FA04903146039806F0ECFA014604980B
:1025800006F0E0F906462946504606F0E3FA014611
:10259000304606F0D5F90146069806F0DBFA01460A
:1025A000384606F0CFF9189015A805F0BFFB04F1E6
:1025B0001C050FC885E80F00A8E0256A0AF1004055
:1025C000294606F0C7FA0646636A06931946039839
:1025D00006F0C0FA0146304606F0B2F90646A76A90
:1025E0003946049806F0B6FA0146304606F0A8F9D6
:1025F0000790E6693146504606F0ACFA0890069915
:10260000049806F0A7FA0146089806F09BF908908E
:102610003946039806F09EFA0146089806F090F9AC
:1026200008903146039806F095FA099029460498D7
:1026300006F090FA0146099806F082F909903946A9
:10264000504606F087FA0146099806F07BF90746DE
:102650003146049806F07EFA06462946039806F0AD
:1026600079FA0146304606F06DF90546069950465E
:1026700006F070FA0146284606F062F906464FF069
:102680007C51384606F066FA07464FF07C510898B0
:1026900006F060FA82464FF07C51079806F05AFA2D
:1026A00005464FF07C51304606F054FA00903B4608
:1026B0005246294615A804F00DFD1599059D28469A
:1026C00006F048FA0146E06906F03CF9E061169927
:1026D000284606F03FFA0146206A06F033F92062E8
:1026E0001799284606F036FA0146606A06F02AF97C
:1026F00060621899284606F02DFA0146A06A06F095
:1027000021F9A06204F11C0005F010FB04F1340370
:1027100004F1300204F12C0104F11C0005F03EF933
:102720000AAD5A4604F18001284604F0BDFB04F1CD
:10273000100395E8070083E80700E068D0F83C390B
:1027400083B104F14805D5E90045114A0023121967
:102750006B414B4508BF424506D2D0F80C3A2BB925
:10276000012304E0002302E0002300E0002333B152
:10277000082100F5D8501030FFF7ECFA05E00821E9
:1027800000F5D8501030FFF7F1FA35B0BDE8F08F02
:1027900020A1070010B4046992B202F5C97204EBDB
:1027A0008204D4F848321BB1064A92FBF3F200E0EF
:1027B000002201EB4101CB000344C3F8382110BCD7
:1027C000704700BF40420F0010B5044601614FF44E
:1027D0008472054900F59C700EF072FD002384F8A8
:1027E0003231204610BD00BF6015010890F832312B
:1027F000DBB130B5C3B00C460546CA7806320231AB
:1028000068460EF05DFDE278911D0DEB0100238816
:102810000DF801301B0A43702B69186803689B6927
:1028200008326946984743B030BD7047F0B5C9B02B
:102830000446036993F89478D3F80C3A0BB101225B
:1028400000E0022201AB002501958DF808208DF8EB
:1028500009508DF80A508DF80B5003228DF80C208A
:1028600006AE93E8070003C632708DF81750FE23BA
:102870008DF8123009238DF813308DF815708DF80E
:1028800016502D4A93798DF81430013393714FF619
:10289000FF7205210DF113054B1E98B279B12B780B
:1028A0005340DBB283EA0313DBB2190241EA22226E
:1028B00082EAC30282EA231201460135ECE7ADF851
:1028C00010209DF81350ABB206A8591E89B29BB1D7
:1028D0000378BDF810607340DBB283EA0313DBB208
:1028E0001A0242EA262282EAC30282EA2313ADF8E0
:1028F00010300B460130E8E7BDF8101081F03203CC
:10290000DBB283EA0313DBB21A0242EA212282EA33
:10291000C30282EA2313ADF8103006A94B559DF887
:1029200013300133BDF810201212CA5404A92046F6
:10293000FFF75CFF49B0F0BDCC00002090F83231C9
:10294000002B00F0B8802DE9F04FCBB00369D3F82D
:102950000C2A42B903F58A5204325279012A05D170
:102960004FF0020804E04FF0000801E04FF00108CA
:10297000044693F8945841F614369A1913F806A0B1
:1029800092F8019041F2CC07D81902F015FF01909E
:102990002069384402F014FF074623691E44367943
:1029A000186803689B6A98470FFA80FB2069FDF757
:1029B000E9FD03ABADF80CB0ADF80E008DF810A03A
:1029C0008DF811909DF804208DF812208DF8137069
:1029D0008DF814608DF8158008AE93E8070003C6E3
:1029E0003280BF238DF81F30FE238DF81A300A2362
:1029F0008DF81B308DF81D5000238DF81E302E4AA7
:102A000093798DF81C30013393714FF6FF720521D5
:102A10000DF11B054B1E98B279B12B785340DBB2F8
:102A200083EA0313DBB2190241EA222282EAC302DB
:102A300082EA231201460135ECE7ADF818209DF833
:102A40001B50ABB208A8591E89B29BB10378BDF8E0
:102A500018607340DBB283EA0313DBB21A0242EA66
:102A6000262282EAC30282EA2313ADF818300B460D
:102A70000130E8E7BDF8181081F0B703DBB283EA54
:102A80000313DBB21A0242EA212282EAC30282EA7B
:102A90002313ADF8183008A94B559DF81B300133AE
:102AA000BDF818201212CA5406A92046FFF79EFE50
:102AB0004BB0BDE8F08F7047CC0000202DE9F04FFF
:102AC000CDB0044690F8009090F80480076941F278
:102AD000B826BD194FF47A720023D5E90A0106F031
:102AE00095FAD5F80CB0D5F810A0D5F814C0D5F8E3
:102AF00018E0B9596A68AB680090CDF804B0CDF819
:102B000008A0CDF80CC0CDF810E00591069207930F
:102B10000AAE6D460FCD0FC695E80F0086E80F0090
:102B20001F238DF82730FE238DF8223020238DF8C7
:102B300023308DF825908DF826802E4A93798DF8D4
:102B40002430013393714FF6FF7205210DF12305F7
:102B50004B1E98B279B12B785340DBB283EA031352
:102B6000DBB2190241EA222282EAC30282EA23127C
:102B700001460135ECE7ADF820209DF82350ABB2BB
:102B80000AA8591E89B29BB10378BDF82060734032
:102B9000DBB283EA0313DBB21A0242EA262282EA9C
:102BA000C30282EA2313ADF820300B460130E8E778
:102BB000BDF8201081F0F603DBB283EA0313DBB229
:102BC0001A0242EA212282EAC30282EA2313ADF802
:102BD00020300AA94B559DF823300133BDF8202041
:102BE0001212CA5408A92046FFF700FE4DB0BDE8F6
:102BF000F08F00BFCC0000202DE9F047D4B0044690
:102C000003690DAE03F5CE53183393E8070086E849
:102C100007000AAD03F10C0207CA85E8070094F823
:102C200000E02779D3E90C01D6F80080D6F804C07B
:102C3000D6F808902E686A68D5F808A09B6A54AD4B
:102C400065E95401C5F80880C5F80CC0C5F81090B6
:102C50006E61AA61C5F81CA02B6212AE0FCD0FC623
:102C60000FCD0FC62B683360B5238DF84730FE2398
:102C70008DF8423024238DF843308DF845E08DF8EF
:102C800046702E4A93798DF84430013393714FF694
:102C9000FF7205210DF143054B1E98B279B12B78D7
:102CA0005340DBB283EA0313DBB2190241EA22226A
:102CB00082EAC30282EA231201460135ECE7ADF84D
:102CC00040209DF84350ABB212A8591E89B29BB167
:102CD0000378BDF840607340DBB283EA0313DBB2D4
:102CE0001A0242EA262282EAC30282EA2313ADF8DC
:102CF00040300B460130E8E7BDF8401081F0430357
:102D0000DBB283EA0313DBB21A0242EA212282EA2F
:102D1000C30282EA2313ADF8403012A94B559DF847
:102D200043300133BDF840201212CA5410A9204686
:102D3000FFF75CFD54B0BDE8F08700BFCC00002079
:102D40002DE9F041CEB0044690F800800779036980
:102D5000186803689B689847256905F59A550435F6
:102D60000090002301932DB92022194602A80EF0ED
:102D7000B2FA0AE002AE28686968AA68EB680FC672
:102D800028696969AA69EB690FC60CAD6E460FCE5A
:102D90000FC50FCE0FC596E8030085E80300BE23DC
:102DA0008DF82F30FE238DF82A3028238DF82B3014
:102DB0008DF82D808DF82E702D4A93798DF82C305A
:102DC000013393714FF6FF7205210DF12B054B1E58
:102DD00098B279B12B785340DBB283EA0313DBB2AC
:102DE000190241EA222282EAC30282EA2312014640
:102DF0000135ECE7ADF828209DF82B50ABB20CA8BC
:102E0000591E89B29BB10378BDF828607340DBB2CC
:102E100083EA0313DBB21A0242EA262282EAC302E1
:102E200082EA2313ADF828300B460130E8E7BDF8FD
:102E3000281081F0E603DBB283EA0313DBB21A0247
:102E400042EA212282EAC30282EA2313ADF8283043
:102E50000CA94B559DF82B300133BDF828201212D8
:102E6000CA540AA92046FFF7C1FC4EB0BDE8F08164
:102E7000CC0000202DE9F04FD5B004460678057946
:102E80000369186803689B6898470190236918686C
:102E900003681B6E002198478246236918680368FF
:102EA0001B6E0121984781462369186803681B6ED1
:102EB0000221984780462369186803681B6E032126
:102EC000984702902369186803681B6E042198478D
:102ED00003902369186803681B6E05219847834691
:102EE0002369186803681B6E062198470746236903
:102EF000186803681B6E07219847019B0593ADF87E
:102F000018A0ADF81A90ADF81C80BDF80830ADF8E7
:102F10001E30BDF80C30ADF82030ADF822B0ADF861
:102F20002470ADF826000023ADF82830ADF82A3023
:102F3000ADF82C30ADF82E30ADF83030ADF8323081
:102F4000ADF83430ADF83630ADF838300822ADF891
:102F50003A208DF83C308DF83D300DF1480E05AF2C
:102F60000FCFAEE80F000FCFAEE80F0097E80700D5
:102F7000AEE80300AEF8002041238DF84730FE2371
:102F80008DF842302A238DF843308DF845608DF856
:102F900046502E4A93798DF84430013393714FF6A1
:102FA000FF7205210DF143054B1E98B279B12B78C4
:102FB0005340DBB283EA0313DBB2190241EA222257
:102FC00082EAC30282EA231201460135ECE7ADF83A
:102FD00040209DF84360B3B212AD591E89B29BB137
:102FE0002B78BDF840004340DBB283EA0313DBB229
:102FF0001A0242EA202282EAC30282EA2313ADF8CF
:1030000040300B460135E8E7BDF8401081F076030B
:10301000DBB283EA0313DBB21A0242EA212282EA1C
:10302000C30282EA2313ADF8403012A98B559DF8F4
:1030300043300133BDF840201212CA5410A9204673
:10304000FFF7D4FB55B0BDE8F08F00BFCC000020E7
:10305000036903F5CE52183292F84420002A7AD040
:10306000F0B5C9B004460778067903F5CE53186D5C
:10307000596D9A6D01AB01900291039206AD93E8F0
:10308000070085E80700B8238DF81730FE238DF878
:1030900012300C238DF813308DF815708DF81660F2
:1030A0002D4A93798DF81430013393714FF6FF72E6
:1030B00005210DF113054B1E98B279B12B785340C1
:1030C000DBB283EA0313DBB2190241EA222282EA6D
:1030D000C30282EA231201460135ECE7ADF8102065
:1030E0009DF81350ABB206A8591E89B29BB1037864
:1030F000BDF810607340DBB283EA0313DBB21A023F
:1031000042EA262282EAC30282EA2313ADF8103093
:103110000B460130E8E72046BDF8101081F0A90306
:10312000DBB283EA0313DBB21A0242EA212282EA0B
:10313000C30282EA2313ADF8103006A94B559DF85F
:1031400013300133BDF810201212CA5404A9FFF73E
:103150004DFB49B0F0BD7047CC000020036903F57A
:10316000CE52183292F85420002A7AD0F0B5C9B065
:1031700004460778067903F5CE53186E596E9A6E99
:1031800001AB01900291039206AD93E8070085E838
:103190000700B7238DF81730FE238DF812300C236B
:1031A0008DF813308DF815708DF816602D4A9379CF
:1031B0008DF81430013393714FF6FF7205210DF134
:1031C00013054B1E98B279B12B785340DBB283EADA
:1031D0000313DBB2190241EA222282EAC30282EA25
:1031E000231201460135ECE7ADF810209DF813508D
:1031F000ABB206A8591E89B29BB10378BDF8106026
:103200007340DBB283EA0313DBB21A0242EA2622DE
:1032100082EAC30282EA2313ADF810300B46013074
:10322000E8E72046BDF8101081F0CE03DBB283EA58
:103230000313DBB21A0242EA212282EAC30282EAC3
:103240002313ADF8103006A94B559DF81330013308
:10325000BDF810201212CA5404A9FFF7C7FA49B0EA
:10326000F0BD7047CC000020026902F5CE53183340
:1032700093F85C30002B7FD0F0B5C9B004460778D6
:10328000067902F5CE521832926D00924FF08242CA
:1032900001924FF07A52029200228DF80C2006AD76
:1032A0009DE80F0007C52B70BB238DF81730FE2358
:1032B0008DF812300D238DF813308DF815708DF8C0
:1032C00016602E4A93798DF81430013393714FF6BE
:1032D000FF7205210DF113054B1E98B279B12B78C1
:1032E0005340DBB283EA0313DBB2190241EA222224
:1032F00082EAC30282EA231201460135ECE7ADF807
:1033000010209DF81350ABB206A8591E89B29BB18C
:103310000378BDF810607340DBB283EA0313DBB2BD
:103320001A0242EA262282EAC30282EA2313ADF895
:1033300010300B460130E8E72046BDF8101081F050
:103340003C03DBB283EA0313DBB21A0242EA212216
:1033500082EAC30282EA2313ADF8103006A94B5566
:103360009DF813300133BDF810201212CA5404A97D
:10337000FFF73CFA49B0F0BD704700BFCC00002019
:10338000036903F5CE52183292F86D20002A7BD0E3
:10339000F0B5C9B004460778067903F5CE53986FA7
:1033A000D96FD3F8802001AB01900291039206AD52
:1033B00093E8070085E80700B6238DF81730FE2351
:1033C0008DF812300C238DF813308DF815708DF8B0
:1033D00016602E4A93798DF81430013393714FF6AD
:1033E000FF7205210DF113054B1E98B279B12B78B0
:1033F0005340DBB283EA0313DBB2190241EA222213
:1034000082EAC30282EA231201460135ECE7ADF8F5
:1034100010209DF81350ABB206A8591E89B29BB17B
:103420000378BDF810607340DBB283EA0313DBB2AC
:103430001A0242EA262282EAC30282EA2313ADF884
:1034400010300B460130E8E72046BDF8101081F03F
:10345000DA03DBB283EA0313DBB21A0242EA212267
:1034600082EAC30282EA2313ADF8103006A94B5555
:103470009DF813300133BDF810201212CA5404A96C
:10348000FFF7B4F949B0F0BD704700BFCC00002091
:1034900008B5FFF753FA08BD632900F2A380F0B521
:1034A000CDB0044603695A1802F58352127812B15E
:1034B000012A02D094E0062500E0092593F89478CB
:1034C00003F51272080100F5FB6001F5C97603EB04
:1034D0008603D3F8483201936423ADF80830ADF881
:1034E0000A108DF81C50131805D100230393049380
:1034F0000593069305E003AD186859689A68DB6880
:103500000FC50AAD01AE0FCE0FC596E8070003C583
:103510002A7016238DF82730FE238DF822301923C8
:103520008DF823308DF8257000238DF826302E4A33
:1035300093798DF82430013393714FF6FF72052192
:103540000DF123054B1E98B279B12B785340DBB2B5
:1035500083EA0313DBB2190241EA222282EAC302A0
:1035600082EA231201460135ECE7ADF820209DF8F0
:103570002350ABB20AA8591E89B29BB10378BDF89B
:1035800020607340DBB283EA0313DBB21A0242EA23
:10359000262282EAC30282EA2313ADF820300B46CA
:1035A0000130E8E72046BDF8201081F0DC03DBB2F3
:1035B00083EA0313DBB21A0242EA212282EAC3023F
:1035C00082EA2313ADF820300AA94B559DF8233029
:1035D0000133BDF820201212CA5408A9FFF706F9DA
:1035E0004DB0F0BD704700BFCC0000200023037534
:1035F000704700BF70B586B006460D4601AC55F861
:10360000080F6968AA68EB680FC4286920609DF8F4
:103610000610306990F89428914210D1BDF9041039
:10362000002906DA02A900F51270FDF7DBFB01465E
:1036300000E089B2632902D83046FFF72DFF06B0BB
:1036400070BD00BF70B586B006460D466C4655F895
:10365000080F6968AA68EB680FC428692060AA8A05
:10366000AB7DA280A3719DF80420306990F8943856
:103670009A4222D10DF1060100F51270FDF7B2FB5E
:1036800063281AD89DF81630062B02D0092B04D0D7
:1036900001E0002202E0022200E001223469231846
:1036A00003F583531B789A4207D1012A05D8009A63
:1036B000014604F51270FDF7EDFB06B070BD00BFCA
:1036C000017D632907D810B50446FFF7E5FE237D89
:1036D0000133237510BD704708B5FFF7F1FF08BD32
:1036E000F0B5CDB004460D46036918680368DB6881
:1036F000984706460F462B4648AD53F8080F5968C1
:103700009A68DB680FC548ABD3E90023134340F048
:10371000888094F800E02579BB00B00043EA9671F8
:103720004B0143EAD0634201121A63EB0103B6185E
:103730005F41FB0043EA5673F20016461F464CA950
:1037400061E94C674AABD3E90023C1E9022306AE25
:103750000FC986E80F006F238DF81730FE238DF810
:10376000123010238DF813308DF815E08DF81650B7
:103770002D4A93798DF81430013393714FF6FF720F
:1037800005210DF113054B1E98B279B12B785340EA
:10379000DBB283EA0313DBB2190241EA222282EA96
:1037A000C30282EA231201460135ECE7ADF810208E
:1037B0009DF81350ABB206A8591E89B29BB103788D
:1037C000BDF810607340DBB283EA0313DBB21A0268
:1037D00042EA262282EAC30282EA2313ADF81030BD
:1037E0000B460130E8E7BDF8101081F02203DBB290
:1037F00083EA0313DBB21A0242EA212282EAC302FD
:1038000082EA2313ADF8103006A94B559DF813300A
:103810000133BDF810201212CA5404A92046FEF745
:10382000E5FF4DB0F0BD00BFCC00002070B594B0F6
:1038300006460D460FAC55F8080F6968AA68EB6894
:103840000FC42B8A23800F9B0893109B0A93119B14
:103850000C93129B0E939DF84D3083F0010202F001
:1038600001028DF81C205A0882F0010202F00102C8
:103870008DF824209A0882F0010202F001028DF8EE
:103880002C20DB0883F0010303F001038DF83430B2
:103890009DF84C30012B0ED013B1022B16D020E036
:1038A00003238DF81D308DF825308DF82D3002233F
:1038B0008DF8353015E000238DF81D308DF825305A
:1038C0008DF82D3002238DF835300AE001238DF874
:1038D0001D308DF8253000238DF82D3002238DF812
:1038E00035303369186803689B68984706903669D5
:1038F0006C4609AD0FCD0FC495E8030084E80300C2
:1039000006AB0ECB06F586500C3001F069FF14B003
:1039100070BD00BFF0B5D3B00446036993F8947846
:103920008DF8041032B9322200210DF105000DF09E
:10393000D2FC14E0104613460DF105013030D3F8E7
:1039400000E05E689D68DA68C1F800E04E608D6056
:10395000CA60103310318342F1D11B880B8010AD47
:1039600001AE0FCE0FC50FCE0FC50FCE0FC53368FA
:1039700025F8023B1B0C2B70FD238DF83F30FE23F6
:103980008DF83A3033238DF83B308DF83D700023AD
:103990008DF83E302D4A93798DF83C300133937188
:1039A0004FF6FF7205210DF13B054B1E98B279B120
:1039B0002B785340DBB283EA0313DBB2190241EAEE
:1039C000222282EAC30282EA231201460135ECE791
:1039D000ADF838209DF83B50ABB210A8591E89B203
:1039E0009BB10378BDF838607340DBB283EA031300
:1039F000DBB21A0242EA262282EAC30282EA2313D7
:103A0000ADF838300B460130E8E7BDF8381081F0EA
:103A10005303DBB283EA0313DBB21A0242EA212228
:103A200082EAC30282EA2313ADF8383010A94B555D
:103A30009DF83B300133BDF838201212CA540EA94C
:103A40002046FEF7D3FE53B0F0BD00BFCC000020EF
:103A50000CB430B58FB004460D4612AA52F8041BC0
:103A60000D926846FCF7C2FC6A4629462046FFF7DD
:103A700051FF0FB0BDE8304002B07047F0B5ADF572
:103A8000177D04460F7A006941F61433C35C002B9E
:103A900040F0DE800A2F00F2CD80DFE807F0402002
:103AA0002830380A111806D549000025012630466D
:103AB000D1E000F51270FDF72DF900252E46CAE081
:103AC00000F51270FDF75AF900252E46C3E000F507
:103AD0001270FCF7CDFD00252E460120BBE000F55D
:103AE000CE501030FDF744FB00252E46B3E000F524
:103AF000CE501030FDF71EFB00252E46ABE000F542
:103B0000CE501030FDF754FB00252E46A3E000F503
:103B1000CE501030FDF760FB00252E469BE000F5EF
:103B20008E50183001F05EF800252E46012092E0FC
:103B300094F800C094F804E001AD8A4E0FCE0FC592
:103B40000FCE0FC50FCE0FC533682B8010AE01AD61
:103B50000FCD0FC60FCD0FC60FCD0FC62B6833800C
:103B6000C0238DF83F30FE238DF83A3032238DF894
:103B70003B308DF83DC08DF83EE07B4A93798DF85F
:103B80003C30013393714FF6FF7205210DF13B0577
:103B90004B1E98B279B12B785340DBB283EA031302
:103BA000DBB2190241EA222282EAC30282EA23122C
:103BB00001460135ECE7ADF838209DF83B50ABB23B
:103BC00010A8591E89B29BB10378BDF838607340C4
:103BD000DBB283EA0313DBB21A0242EA262282EA4C
:103BE000C30282EA2313ADF838300B460130E8E710
:103BF000BDF8381081F08603DBB283EA0313DBB231
:103C00001A0242EA212282EAC30282EA2313ADF8B1
:103C1000383010A94B559DF83B300133BDF83820A2
:103C20001212CA540EA92046FEF7E0FD00252E46CA
:103C3000012010E03B464D4A03212046FFF708FFD4
:103C400000252E46284606E001250026284602E0EB
:103C500000252E46284608B1012100E000212278E7
:103C600023798DF838708DF83910BDF83810ADF81B
:103C70005011BD218DF84F11FE218DF84A110221FE
:103C80008DF84B118DF84D218DF84E31364A9379D0
:103C90008DF84C31013393714FF6FF7205230DF20D
:103CA0004B17581E80B27BB13B785340DBB283EA9E
:103CB0000313DBB2190241EA222282EAC30282EA3A
:103CC000231203460137ECE7ADF848219DF84B710C
:103CD000BBB254A8591E89B2A3B10378BDF848E11C
:103CE00083EA0E03DBB283EA0313DBB21A0242EA71
:103CF0002E2282EAC30282EA2313ADF848310B4632
:103D00000130E7E7BDF8481181F07103DBB283EAC7
:103D10000313DBB21A0242EA212282EAC30282EAD8
:103D20002313ADF8483154A9CB559DF84B310133DD
:103D3000BDF848211212CA5452A92046FEF756FD7A
:103D400006B95DB12369186803681B691421984797
:103D50002369186803685B68294698470DF5177D45
:103D6000F0BD00BF002C0108CC0000201C2C010875
:103D700008B5037F172B19D004D8142B11D0152B9D
:103D80000CD008BDB42B04D0BC2B14D06F2B1BD18E
:103D900016E000F11501FFF749FD08BDFFF726FC0D
:103DA00008BD00F11501FFF725FC08BD00F1150164
:103DB000FFF748FC08BD00F11501FFF75FFE08BDE5
:103DC00000F11501FFF78CFC08BD00BFF8B50546F2
:103DD0002B6918680368DB699847002800F0478161
:103DE0002B69186803681B6A9847064605F1150792
:103DF00005F593749E4B00221A70DB780A2B00F2B3
:103E0000E780DFE803F0060615412C566B87A6C94C
:103E1000C900FE2840F0DC80954B0222DA700022B7
:103E200083F8332083F832004FF6FF721A86CFE012
:103E30008F4981F8330000230B71088E86EA000356
:103E4000DBB283EA0313DBB21A0242EA202282EADF
:103E5000C30282EA23130B860423CB70B8E08449A3
:103E600081F83400088E86EA0003DBB283EA03138C
:103E7000DBB21A0242EA202282EAC30282EA231358
:103E80000B860323CB70A3E0794981F83500088EB7
:103E900086EA0003DBB283EA0313DBB21A0242EACA
:103EA000202282EAC30282EA23130B860523CB7009
:103EB0008EE06F4981F83600088E86EA0003DBB297
:103EC00083EA0313DBB21A0242EA202282EAC30227
:103ED00082EA23130B860623CB7079E0644981F8CC
:103EE0003700088E86EA0003DBB283EA0313DBB2F5
:103EF0001A0242EA202282EAC30282EA23130B86D4
:103F000091F8333013B90822CA7061E00722584B88
:103F1000DA705DE0564A1379591C117102F13801CB
:103F2000C854108E86EA0003DBB283EA0313DBB2C7
:103F3000190241EA202181EAC30181EA2313138691
:103F4000117992F83330994242D10822484BDA7005
:103F50003EE0474991F83730464A134493F8083118
:103F6000088E4340DBB283EA0313DBB21A0242EA53
:103F7000202282EAC30282EA23130B86DBB29E422E
:103F800002D00A22CA7002E00922394BDA70384B9B
:103F90001A7938339E541BE00A2B04D0344B1B8E05
:103FA000B0EB232F03D00222314B1A7002E0012222
:103FB0002F4B1A702E490123CB700B7901F1380277
:103FC0000133D6544FF48872303138460DF078F909
:103FD000274B1B78012B0BD1254B93F834205A71BA
:103FE0001B8913B90021224A51810133204A1381D0
:103FF0001F4B93F83320FA70DA78E2701A79227145
:104000005A79013262711A8922819A78628100227A
:104010009A701B78022B0AD1154A1379134493F82E
:10402000382093F8393042EA0323A5F81530104BB5
:104030001B78022B14D10E4B9A7801329A70002211
:104040001A700122DA70FE2E09D11A460223D370AB
:10405000002382F833304FF6FF71118600E0002311
:10406000002B3FF4B5AE2846FFF782FEB0E6F8BD60
:10407000CC00002060150108F8B5074603691868F0
:104080000368DB68984704460D4600260A2E42DC8A
:1040900006EB4602D3003B44D3F83831002B38D02E
:1040A00006EB4602D3003B4403F5A073D3E900239B
:1040B0009D4208BF94422CD372003244D3003B444B
:1040C000D3F83821F3E95001801841F10001C3E928
:1040D0000001A94208BFA042EED306EB4602D3007E
:1040E0003B44D3F84C0110F0010F06D106EB460219
:1040F000D3003B44D3F8483108E0421006EB4601B8
:10410000CB003B44BA58D3F84831D35807EB600092
:1041100098470136BAE7F8BD01EB4101CB001844DE
:10412000C0F83821704700BF2DE9F041CAB00446FD
:104130000D46164690F800800779036918680368F1
:104140009B689847019002962DB90023039304932E
:10415000ADF8143005E003AB2868696803C32A8909
:104160001A8008AD01AE0FCE0FC533682B80FC233B
:104170008DF81F30FE238DF81A3012238DF81B3076
:104180008DF81D808DF81E702D4A93798DF81C30A6
:10419000013393714FF6FF7205210DF11B054B1E84
:1041A00098B279B12B785340DBB283EA0313DBB2C8
:1041B000190241EA222282EAC30282EA231201465C
:1041C0000135ECE7ADF818209DF81B50ABB208A8FC
:1041D000591E89B29BB10378BDF818607340DBB2F9
:1041E00083EA0313DBB21A0242EA262282EAC302FE
:1041F00082EA2313ADF818300B460130E8E7BDF82A
:10420000181081F02C03DBB283EA0313DBB21A022D
:1042100042EA212282EAC30282EA2313ADF818306F
:1042200008A94B559DF81B300133BDF81820121218
:10423000CA5406A92046FEF7D9FA4AB0BDE8F08173
:10424000CC0000202DE9F041CAB004460D461646C8
:1042500090F8008007790369186803689B6898479D
:10426000019002962DB9002303930493ADF8143006
:1042700005E003AB2868696803C32A891A8008AD82
:1042800001AE0FCE0FC533682B80FB238DF81F3096
:10429000FE238DF81A3012238DF81B308DF81D8007
:1042A0008DF81E702D4A93798DF81C30013393716F
:1042B0004FF6FF7205210DF11B054B1E98B279B127
:1042C0002B785340DBB283EA0313DBB2190241EAD5
:1042D000222282EAC30282EA231201460135ECE778
:1042E000ADF818209DF81B50ABB208A8591E89B232
:1042F0009BB10378BDF818607340DBB283EA031307
:10430000DBB21A0242EA262282EAC30282EA2313BD
:10431000ADF818300B460130E8E7BDF8181081F011
:10432000AA03DBB283EA0313DBB21A0242EA2122B8
:1043300082EAC30282EA2313ADF8183008A94B556C
:104340009DF81B300133BDF818201212CA5406A97B
:104350002046FEF74BFA4AB0BDE8F081CC000020C1
:1043600070B5ADF5487D0446036918680268526966
:10437000D3F8901890472569D5F894382360FA232C
:10438000636000220023C4E902236423237505F53A
:10439000127546ABB24A46920026479644AA93E865
:1043A000030082E803008DE8030002AA82E803000C
:1043B00004AB83E80300B4AA82E8030040AB83E8BF
:1043C00003001E72DC6019463CA809F0C7FC0222FB
:1043D0003CA92846FCF780FD3E9B1BB103223CA96B
:1043E00008469847256905F5127552AB9C4A5292CA
:1043F0000022539250AA93E8030082E8030006AB20
:1044000083E8030008AA82E803000AAB83E80300FC
:10441000B6AA82E803004CAB83E8030002221A72BA
:10442000DC60194648A809F099FC042248A92846EE
:10443000FCF752FD4A9B1BB1032248A90846984746
:10444000256905F512755EAB854A5E9200225F9282
:104450005CAA93E8030082E803000CAB83E8030046
:104460000EAA82E8030010AB83E80300B8AA82E832
:10447000030058AB83E8030003221A72DC6019467C
:1044800054A809F06BFC052254A92846FCF724FD2A
:10449000569B1BB1032254A908469847256905F588
:1044A00012756AAB6E4A6A9200226B9268AA93E810
:1044B000030082E8030012AB83E8030014AA82E839
:1044C000030016AB83E80300BAAA82E8030064ABDA
:1044D00083E8030002221A72DC60194660A809F022
:1044E0003DFC042260A92846FCF7F6FC629B1BB148
:1044F000032260A908469847256905F5127576AB31
:10450000574A76920022779274AA93E8030082E8D1
:10451000030018AB83E803001AAA82E803001CAB6F
:1045200083E80300BCAA82E8030070AB83E80300C1
:1045300004221A72DC6019466CA809F00FFC0822EC
:104540006CA92846FCF7C8FC6E9B1BB103226CA922
:1045500008469847256905F5127582AB404A829254
:104560000022839280AA93E8030082E803001EAB36
:1045700083E8030020AA82E8030022AB83E803005B
:10458000BEAA82E803007CAB83E8030005221A720E
:10459000DC60194678A809F0E1FB072278A92846D3
:1045A000FCF79AFC7A9B1BB1032278A9084698472E
:1045B000256905F512752A4B8E9300238F938CAADB
:1045C0008EAB93E8030082E8030024AB83E803008A
:1045D00026AA82E8030028AB83E80300C0AA82E889
:1045E000030088AB83E8030006221A72DC601946D8
:1045F00084A809F0B3FB092284A92846FCF76CFCC7
:10460000869B1BB1032284A908469847256905F5B6
:104610001275134B9A9300239B9398AB9AAA92E836
:10462000030083E803002AAA82E803002CAB83E896
:1046300003002EAA82E80300C2AB83E8030094AA19
:1046400082E8030007238DF858329794114690A80A
:1046500009F084FB062290A92846FCF73DFC01E006
:1046600095270008929B1BB1032290A90846984702
:10467000256905F512755B4BA6930023A793A4ABA0
:10468000A6AA92E8030083E8030030AA82E80300A8
:1046900032AB83E8030034AA82E80300C4AB83E8AA
:1046A0000300A0AA82E8030008238DF88832A394AF
:1046B00011469CA809F052FB0A229CA92846FCF747
:1046C0000BFC9E9B1BB103229CA9084698472569B9
:1046D00005F51275434BB2930023B393B0ABB2AA66
:1046E00092E8030083E8030036AA82E8030038ABAF
:1046F00083E803003AAA82E80300C6AB83E803001C
:10470000ACAA82E8030009238DF8B832AF941146B1
:10471000A8A809F023FB0B22A8A92846FCF7DCFB7C
:10472000AA9B1BB10322A8A908469847012384F835
:1047300032312D4A06212046FFF78AF94FE03E9B91
:104740001BB103223CA90846984709F078FF4A9B11
:104750001BB1032248A90846984709F070FF569BF1
:104760001BB1032254A90846984709F068FF629BD1
:104770001BB1032260A90846984709F060FF6E9BB1
:104780001BB103226CA90846984709F058FF7A9B91
:104790001BB1032278A90846984709F050FF869B71
:1047A0001BB1032284A90846984709F048FF929B51
:1047B0001BB1032290A90846984709F040FF9E9B31
:1047C0001BB103229CA90846984709F038FFAA9B11
:1047D0001BB10322A8A90846984709F030FF0DF540
:1047E000487D70BD952700083C2C0108002202601E
:1047F000426082604FF07E51C160044901614261B4
:104800008261C261024A0262704700BF000080BF3D
:10481000CDCC4C3D016042608360009BC360019B36
:104820000361029B036270472DE9F04385B00446A3
:1048300000220023C0E9322350F8143BD3F8C058BB
:1048400005F10046D3F80C79D3F8E818D3F8EC2832
:10485000D3F8F038029701960095FFF7DBFFA046EA
:1048600058F85C3BD3F8C418D3F8C828D3F8CC3830
:1048700002970196009504F13800FFF7CBFFA1469F
:1048800059F8803BD3F8F418D3F8F828D3F8FC385B
:104890000297019600954046FFF7BCFFA04658F8E6
:1048A000A43BD3F8D018D3F8D428D3F8D83802973B
:1048B000019600954846FFF7ADFF2368D3F8DC1852
:1048C000D3F8E028D3F8E4380297019600954046E3
:1048D000FFF7A0FF05B0BDE8F08300BF08B5FFF704
:1048E000A3FF08BD2DE9F84F04468B469DF82860CC
:1048F0001146184604F024F80746216804F02AF906
:104900008246A5680021284604F0E0FA28B10B99F8
:10491000284604F01FF9814601E04FF00009D4F861
:1049200004800021404604F0D1FA70B17EB15946AE
:10493000384604F00FF9616904F004F8014660613B
:10494000404604F007F9064602E0002600E0002693
:104950004946504603F0F4FF0146304603F0F2FFAB
:104960000746E568294604F0B1FA30B925692946B9
:10497000384604F08DFA00B93D463946284604F021
:104980007DFA00BB26F000465146384603F0D8FFBA
:104990000146484603F0D6FF20F00041304604F0BF
:1049A00095FA80B10021404604F090FA58B1514682
:1049B000284603F0C5FF0146484603F0C3FF4146C1
:1049C00004F07CF960612846BDE8F88F2DE9F043DA
:1049D00083B004460D4616461F461F49284604F07C
:1049E00075FA48B3216A084603F0ACFF80462946B1
:1049F00003F0A6FF81464146284603F0A3FF804608
:104A00000146484604F05AF9A16904F0A3F881462A
:104A100041464FF0804004F051F98046E16930464C
:104A200003F08EFF0146404604F094F801464846E4
:104A300003F088FFA06100E00020E66101909DF88E
:104A4000283000933B46324629462046FFF74AFF6E
:104A500003B0BDE8F08300BF17B7D1382DE9F043AC
:104A600083B005460F4690461E460A9C9DF82C9042
:104A700002F0D2F9404604F015F88046637953B944
:104A8000CDF80090A3683268014607F13800FFF7BF
:104A90009DFF286010E0012B0CD133680193CDF805
:104AA0000090A368F269014607F11400FFF71AFFAE
:104AB000286001E0A3682B60637B53B9CDF80090B8
:104AC00023697268414607F18000FFF77FFF686045
:104AD00010E0012B0CD173680193CDF8009023698D
:104AE000326A414607F15C00FFF7FCFE686001E0B6
:104AF00023696B60637D53B9B268A369CDF80090F8
:104B0000414607F1A400FFF761FFA86001E0A36937
:104B1000AB60284603B0BDE8F08300BFD0E9322384
:104B200052EA030108D1036803F595531833D3E91A
:104B30000A23C0E93223704770B586B00446056881
:104B400005F5955318339B6A9E1A0ED5102105F56D
:104B5000D8500844FDF7FEF8236803F59553183341
:104B6000D3E90A23C4E9322337E041F61433EB5C7E
:104B700053B105F58A531A49586A04F0A7F928B1C8
:104B8000632E05DC012204E0002202E0002200E0A6
:104B9000002205F58A5304330192009305F59553DD
:104BA00018333246214603A8FFF758FF2568D5F889
:104BB0000019039803F0C6FEA060D5F80419049804
:104BC00003F0C0FEE0600599D5F8080903F0BAFECD
:104BD000206105F58A556B6A636006B070BD00BF41
:104BE000CDCCCC3D10B592B00446006841F61433EC
:104BF000C35C002B45D1264A04210830FEF728FF6C
:104C000006A802F009F909A802F05CFA002306934D
:104C1000079308930A930B930C934FF07E520992DB
:104C20000D930E930F93236803F587531C330022D3
:104C30000192009306AB214603A8FFF70FFF2068FF
:104C4000039A1C2100F51270FCF724F92068049ADD
:104C50001D2100F51270FCF71DF92068059A1E2130
:104C600000F51270FCF716F920680A4A0421083092
:104C7000FEF7EEFE2068084A04210830FEF7E8FE41
:104C800004E0064A04210830FEF7E2FE12B010BD2F
:104C9000442C01086C2C0108942C0108C02C01083C
:104CA00030B5ADF2145D044640F8141BFFF79EFDCD
:104CB00004F13800FFF79AFD04F15C00FFF796FD60
:104CC00004F18000FFF792FD04F1A400FFF78EFDD0
:104CD000256805F5127570ABB24A70920022719288
:104CE0006EAA93E8030082E8030001AB83E80300A7
:104CF00003AA82E8030005AB83E803000DF5916287
:104D000082E803006BAB83E803009C60194667A848
:104D100009F082F8162267A92846FCF7DDF8699B9E
:104D20001BB1032267A908469847256805F5127547
:104D30007BAB9C4A7B9200227C9279AA93E8030089
:104D400082E8030007AB83E8030009AA82E80300B6
:104D50000BAB83E803000DF5926282E8030076ABAB
:104D600083E803009C60194672A809F055F81722E1
:104D700072A92846FCF7B0F8749B1BB1032272A9F4
:104D800008469847256805F5127586AB854A8692D0
:104D90000022879284AA93E8030082E803000DAB07
:104DA00083E803000FAA82E8030011AB83E8030045
:104DB0000DF5936282E8030081AB83E803009C60F9
:104DC00019467DA809F028F818227DA92846FCF785
:104DD00083F87F9B1BB103227DA90846984725686D
:104DE00005F5127591AB6F4A9192002292928FAAAB
:104DF00093E8030082E8030013AB83E8030015AADD
:104E000082E8030017AB83E803000DF5946282E8A3
:104E100003008CAB83E803009C60194688A808F067
:104E2000FBFF0D2288A92846FCF756F88A9B1BB188
:104E3000032288A908469847256805F512759CAB9A
:104E4000584A9C9200229D929AAA93E8030082E815
:104E5000030019AB83E803001BAA82E803001DAB23
:104E600083E803000DF5956282E8030097AB83E8C1
:104E700003009C60194693A808F0CEFF0E2293A968
:104E80002846FCF729F8959B1BB1032293A90846F5
:104E90009847256805F51275A7AB424AA7920022EC
:104EA000A892A5AA93E8030082E803001FAB83E859
:104EB000030021AA82E8030023AB83E803000DF579
:104EC000966282E80300A2AB83E803009C60194667
:104ED0009EA808F0A1FF0F229EA92846FBF7FCFF21
:104EE000A09B1BB103229EA908469847256805F59B
:104EF0001275B2AB2B4AB2920022B392B0AA93E8D9
:104F0000030082E8030025AB83E8030027AA82E8B8
:104F1000030029AB83E803000DF5976282E80300E4
:104F2000ADAB83E803009C601946A9A808F074FFA4
:104F30001922A9A92846FBF7CFFFAB9B1BB103227F
:104F4000A9A908469847256805F51275BDAB154A0D
:104F5000BD920022BE92BBAA93E8030082E8030040
:104F60002BAB83E803002DAA82E803002FAB83E874
:104F700003000DF5986282E80300B8AB83E80300F4
:104F80009C601946B4A808F047FF1A22B4A9284625
:104F9000FBF7A2FFB69B3BB10322B4A90846984792
:104FA00002E000BFDD480008256805F51275C8ABB2
:104FB000BC4AC8920022C992C6AA93E8030082E8BC
:104FC000030031AB83E8030033AA82E8030035AB6A
:104FD00083E803000DF5996282E80300C3AB83E820
:104FE00003009C601946BFA808F016FF1B22BFA94A
:104FF0002846FBF771FFC19B1BB10322BFA90846DE
:105000009847256805F51275D3ABA64AD3920022BE
:10501000D492D1AA93E8030082E8030037AB83E877
:10502000030039AA82E803003BAB83E803000DF5D7
:105030009A6282E80300CEAB83E803009C601946C5
:10504000CAA808F0E9FE1022CAA92846FBF744FFC7
:10505000CC9B1BB10322CAA908469847256805F5D1
:105060001275DEAB8F4ADE920022DF92DCAA93E853
:10507000030082E803003DAB83E803003FAA82E817
:10508000030041AB83E803000DF59B6282E8030057
:10509000D9AB83E803009C601946D5A808F0BCFE94
:1050A0001122D5A92846FBF717FFD79B1BB1032276
:1050B000D5A908469847256805F51275E9AB794AE0
:1050C000E9920022EA92E7AA93E8030082E803004B
:1050D00043AB83E8030045AA82E8030047AB83E8BB
:1050E00003000DF59C6282E80300E4AB83E8030053
:1050F0009C601946E0A808F08FFE1222E0A928461D
:10510000FBF7EAFEE29B1BB10322E0A908469847A1
:10511000256805F51275F4AB624AF4920022F59207
:10512000F2AA93E8030082E8030049AB83E8030096
:105130004BAA82E803004DAB83E803000DF59D62A6
:1051400082E80300EFAB83E803009C601946EBA8FC
:1051500008F062FE1322EBA92846FBF7BDFEED9B8B
:105160001BB10322EBA908469847256805F512757F
:10517000FFAB4C4AFF920022CDF80024FDAA93E831
:10518000030082E803004FAB83E8030051AA82E8E2
:10519000030053AB83E803000DF59E6282E8030031
:1051A000FAAB83E803009C601946F6A808F034FEC9
:1051B0001422F6A92846FBF78FFEF89B1BB10322A9
:1051C000F6A908469847256805F51275354BCDF8C0
:1051D00028340023CDF82C340DF584630DF5856259
:1051E00092E8030083E8030055AA82E8030057AB66
:1051F00083E8030059AA82E803000DF59F6383E862
:1052000003000DF2144282E80300CDF81C4411465D
:105210000DF2044008F000FE15220DF2044128466C
:10522000FBF75AFEDDF80C3423B103220DF20441E2
:1052300008469847256805F512751A4BCDF8543481
:105240000023CDF858340DF24C430DF2544292E84D
:10525000030083E803005BAA82E803005DAB83E8F8
:1052600003005FAA82E803000DF5A06383E8030052
:105270000DF5886282E80300CDF8484411460DF52B
:10528000866008F0C9FD0C220DF586612846FBF703
:1052900023FEDDF838343BB103220DF58661084664
:1052A000984701E0DD480008256805F51275644B54
:1052B000CDF880340023CDF884340DF58F630DF5DF
:1052C000906292E8030083E8030061AA82E8030089
:1052D00063AB83E8030065AA82E803000DF5A163D0
:1052E00083E803000DF26C4282E80300CDF87444B9
:1052F00011460DF25C4008F08FFD1F220DF25C415B
:105300002846FBF7E9FDDDF86434002B00F09480BB
:1053100003220DF25C41084698478DE0699B1BB162
:10532000032267A90846984709F089F9749B1BB1C5
:10533000032272A90846984709F081F97F9B1BB1A7
:1053400003227DA90846984709F079F98A9B1BB189
:10535000032288A90846984709F071F9959B1BB16B
:10536000032293A90846984709F069F9A09B1BB14D
:1053700003229EA90846984709F061F9AB9B1BB12F
:105380000322A9A90846984709F059F9B69B1BB111
:105390000322B4A90846984709F051F9C19B1BB1F3
:1053A0000322BFA90846984709F049F9CC9B1BB1D5
:1053B0000322CAA90846984709F041F9D79B1BB1B7
:1053C0000322D5A90846984709F039F9E29B1BB199
:1053D0000322E0A90846984709F031F9ED9B1BB17B
:1053E0000322EBA90846984709F029F9F89B1BB15D
:1053F0000322F6A90846984709F021F9DDF80C3494
:1054000023B103220DF204410846984709F017F929
:10541000DDF8383423B103220DF58661084698473C
:1054200009F00DF9DDF8643423B103220DF25C417B
:105430000846984709F003F920460DF2145D30BD87
:10544000DD480008F0B504468E4600F134020346FC
:1054500043F8582B436000F17C03836000F13C0368
:10546000C36000F16003036100F18403436100F154
:105470004403836100F16803C36100F18C0303629C
:1054800000F14C03436200F17003836200F1940366
:10549000C362214D00F130062F460FCF0FC60FCF4C
:1054A0000FC6D7F800C0C6F800C004F154062F4656
:1054B0000FCF0FC60FCF0FC6C6F800C004F1780695
:1054C0002F460FCF0FC60FCF0FC6C6F800C004F18E
:1054D0009C0605F124070FCF0FC60FCF0FC63B6800
:1054E000336004F1C00605F148070FCF0FC60FCF98
:1054F0000FC63B68336004F1E4066C350FCD0FC670
:1055000095E8030086E80300C4F8FCE004F19C037E
:10551000C4F804312046F0BD6817010830B4D0F853
:10552000FC30D3F81829C0F8BC20D3F80C3A53B19A
:10553000D0F8045100F1C0040FCC0FC50FCC0FC53B
:1055400023682B6009E0D0F8045100F19C040FCCD3
:105550000FC50FCC0FC523682B6030BC704700BF50
:1055600008B5FFF7DBFF08BD38B50446D0F8FC00EE
:1055700041F68C150021284400F054FAA063D4F8B9
:10558000FC000121284400F04DFA2064D4F8FC000E
:105590000221284400F046FAA064D4F8FC0003215C
:1055A000284400F03FFA2065D4F8FC00D0F80C3A0B
:1055B00053B1032384F8353084F83D3084F8453006
:1055C000022384F84D3038BD032100F5CC500C3057
:1055D00000F030FA50B1D4F8FC00032100F5CC50B3
:1055E0000C3000F023FA48B1012308E0D4F8FC3075
:1055F000D3F8F039003318BF012300E0002384F80A
:10560000353084F83D300BB17BB91CE0D4F8FC5048
:10561000D5F8FC19A06B03F09DFAA063D5F8001A29
:10562000206C03F097FA20640DE0D4F8FC50D5F814
:10563000F419A06B03F08EFAA063D5F8F819206C6A
:1056400003F088FA2064002384F84530D4F8FC3055
:10565000D3F8041AA06C03F07DFAA064022384F846
:105660004D3038BD70B504460D46D0F8FC30186892
:1056700003689B689847064605F11C0304EBC303C7
:105680009B68D4F8FC00D0F8E82913449E4218D354
:1056900005F11C0304EBC303197900F5CC500C3061
:1056A00000F0C0F920F00040D4F8FC30D3F8E41941
:1056B00003F00CFC38B11C3504EBC504A6600120D6
:1056C00070BD012070BD002070BD00BF70B50546E3
:1056D0000C46D0F8FC00012100F5CC500C3000F055
:1056E000A9F948B1D5F8FC00012100F5CC500C30E7
:1056F00000F09CF9034620B921462846FFF7B2FF87
:10570000034643B904EB440293002B445B681B78C7
:105710001BB1002202E0012200E0012204EB44015F
:105720008B0019462B449E680AB16B5804E004EBC9
:105730004404A3001D446B6893E8030086E803005B
:10574000104670BD38B50446D0F8FC00022100F5C3
:10575000CC500C3000F06EF9034640B1D4F8FC0098
:10576000022100F5CC500C3000F060F903469BB9E3
:10577000A36A1A7892B1D4F8FC20D2F8EC297AB155
:10578000626A4FF001055968506803F081FB08B95F
:105790004FF00005EBB204E0012302E0012300E03A
:1057A0000023E26A0BB1616A00E0A16A03C982E8E2
:1057B0000300184638BD00BF90F80101704700BFD4
:1057C0000023032B08DC03EB43018A0002445268E8
:1057D000127812B90133F4E700221046704700BF77
:1057E00084B030B403AC84E80E00012380F80031AB
:1057F00000F154050FCC0FC50FCC0FC523682B60EB
:1058000030BC04B0704700BF84B030B403AC84E84F
:105810000E00012380F8003100F130050FCC0FC5D8
:105820000FCC0FC523682B6030BC04B0704700BF9D
:1058300030B4012380F8003100F1780500F1300424
:105840000FCC0FC50FCC0FC523682B6030BC704741
:10585000F8B5064690F80171D0F8FC0000F5D85371
:1058600014335B7853B106F17804D6F804510FCDA8
:105870000FC40FCD0FC42B6823604BE000F5CC5054
:105880000C3000F027FB002844D03046FFF76CFEB8
:10589000D6F8FC30186803689B689847736D6433CA
:1058A000984208D9002386F8703086F8583086F878
:1058B000603086F8683000213046FFF707FF86F831
:1058C000010101213046FFF701FF96F8013118432D
:1058D00086F8010102213046FFF7F8FE96F8013103
:1058E000184386F801013046FFF72CFF96F8013186
:1058F0001843C0B286F8010130B1D6F8FC30186800
:1059000003685B6F984705E0D6F8FC3018680368B9
:105910009B6F984796F801319F4204D0D6F8FC005F
:105920000830FDF7B5FD0120F8BD00BF30B5A7B0C8
:105930000446D0F8FC5005F51275354B159300233D
:10594000169313AB15AA92E8030083E803008DE8D1
:10595000030002AB83E8030004AA82E8030022AB41
:1059600083E8030010AA82E80300129411460CA8F1
:1059700008F0AAFA5F220CA92846FBF7ADFA0E9BA5
:105980001BB103220CA908469847D4F8FC5005F532
:1059900012751F4B2093002321931EAB20AA92E87F
:1059A000030083E8030006AA82E8030008AB83E84B
:1059B00003000AAA82E8030024AB83E803001BAAC1
:1059C00082E803001D94114617A808F07DFA2222F0
:1059D00017A92846FBF780FA199B1BB1032217A9C8
:1059E000084698472046FFF799FD0FE00E9B1BB134
:1059F00003220CA90846984708F021FE199B1BB109
:105A0000032217A90846984708F019FE27B030BDB1
:105A100061550008016000228260C260026142613B
:105A2000704700BF0C3150F821007047014491F8D5
:105A30002C00704701EB4101084490F822007047A8
:105A40000368D3F8B029027600224276D3F8B4195D
:105A50008176C276D3F8B81901774277D3F8BC398A
:105A600083770123C3777047F0B589B005460024DA
:105A7000032C00F2B180032C3AD8DFE804F0020DC9
:105A80001C2B564B03932B68D3F8CC2904EB44030F
:105A90002B4483F8202037E003AE514F0FCF0FC6C1
:105AA0003B6833802B68D3F8C02904EB44032B44B4
:105AB00083F8202028E003AE4A4F0FCF0FC63B6883
:105AC00033802B68D3F8C42904EB44032B4483F8B8
:105AD000202019E0444B03AE0FCB07C633802B6860
